:10000000E82200203501000031010000310100002C
:1000100000000000000000000000000000000000E0
:10002000000000000000000000000000310100009E
:10003000000000000000000031010000310100005C
:1000400031010000310100004D1B000031010000B2
:1000500031010000310100003101000031010000D8
:1000600031010000310100003101000031010000C8
:10007000310100003101000031010000F5170000DE
:1000800031010000310100003101000031010000A8
:100090003101000031010000310100003101000098
:1000A0003101000031010000310100003101000088
:1000B00031010000310100003101000010B5064C93
:1000C0002378002B07D1054B002B02D0044800E019
:1000D00000BF0123237010BD780000200000000045
:1000E00068460000084B10B5002B03D007490848AC
:1000F00000E000BF07480368002B00D110BD064B8D
:10010000002BFBD09847F9E7000000007C0000209E
:1001100068460000684600000000000010B5024B71
:100120009847024B984710BD7D0D000049290000FB
:10013000FEE7000010B5104A104B9A4209D00F4B51
:100140000D4A03E011681960043304320C498B42F4
:10015000F8D30C4B02E000221A6004330A4A93429F
:10016000F9D30A4AFF210A4B8B439360094B984706
:10017000094B9847FEE7C046684600000000002093
:100180007800002078000020E402002000ED00E06C
:1001900000000000013C0000B127000010B5040081
:1001A000054B98472000054CA0470020A0470020A1
:1001B000A047034B984710BDBD0A0000D90A0000B4
:1001C000C90A000070B504000A4B9847200CC0B261
:1001D000094DA847200AC0B2A847E0B2A8470020AE
:1001E000A8470020054B98470400054B984720007E
:1001F00070BDC046BD0A0000D90A0000F90A00001F
:10020000C90A000070B504000C4B9847200CC0B21E
:100210000B4DA847200AC0B2A847E0B2A84700206B
:10022000A8470020074DA84704000020A847000267
:100230000443A4B2044B9847200070BDBD0A0000DF
:10024000D90A0000F90A0000C90A000070B50400CC
:100250000D000A4B9847230CDBB280204042184324
:10026000C0B2074EB047200AC0B2B047E0B2B047B4
:100270002800B047034B984770BDC046BD0A000038
:10028000D90A0000C90A000070B505000E000B4B2A
:1002900098472B0CDBB2802040421843C0B2084C78
:1002A000A047280AC0B2A047E8B2A047F0B2A047D2
:1002B000300AA047034B984770BDC046BD0A0000F6
:1002C000D90A0000C90A000070B506000D000E4BE7
:1002D0009847330CDBB2802040421843C0B20B4C2D
:1002E000A047300AC0B2A047F0B2A047E8B2A0478A
:1002F000280AC0B2A047280CC0B2A047280EA047C9
:10030000034B984770BDC046BD0A0000D90A0000E3
:10031000C90A000010B50648064B9847064B1B88D3
:100320009BB2984201D0012010BD0020FCE7C046DE
:10033000F8203000050200009400002070B50B4B3F
:100340009847B0200A4CA0472020A047FC20A04797
:10035000084D2888C0B2A0472888000AA047064B4D
:100360009847064B98470028FBD170BDBD0A000096
:10037000D90A000094000020C90A000015030000FB
:1003800010B50348034B9847034B188010BDC04677
:10039000FC2030000502000094000020044A13886D
:1003A000181880B2108013881B051B0D138070472E
:1003B0009400002070B50600114B1D88C2239B03DA
:1003C0009C4665440F4B98472B0CDBB28020404283
:1003D0001843C0B20C4CA047280AC0B2A047E8B2EC
:1003E000A047F0B2A047300AC0B2A047300CC0B25C
:1003F000A047300EA0470420044B984770BDC0466C
:1004000094000020BD0A0000D90A00009D030000EE
:1004100010B5024B9847024B984710BDB50300003A
:10042000C90A000070B50500002403E00C4B984792
:100430000134E4B2285D0028F8D1032323400425C9
:10044000ED1AEDB206E00020054B9847013DEDB2F4
:100450000134E4B2002DF6D1A0B2024B984770BD32
:10046000D90A00009D030000F0B583B006000D001E
:1004700014000193F4204042104B9847F0B2104F03
:10048000B8473612F0B2B847E8B2B8472D12E8B212
:10049000B847E0B2B8472412E0B2B847019CE0B2D6
:1004A000B847200AB8470820064B98470898064BDB
:1004B0009847064B984703B0F0BDC046B50300000F
:1004C000D90A00009D03000025040000C90A0000AD
:1004D00070B50400F7204042094B9847E0B2094D3F
:1004E000A847200AC0B2A847240CE0B2A8470020C1
:1004F000A847054B98470420044B984770BDC04659
:10050000B5030000D90A0000C90A00009D030000DD
:10051000F0B5DE4657464E464546E0B583B0060088
:100520000D00140001930CAB1A8893460DAB1A888A
:1005300092460EAB1A8891460FAB1A889046ED2072
:100540004042214B9847F0B2204FB8473612F0B2E4
:10055000B847E8B2B8472D12E8B2B847E0B2B8479A
:100560002412E0B2B847019CE0B2B847200AB8476D
:100570005B466A4613711079B8475B46180AB8475C
:1005800053466A4613711079B8475346180AB8475C
:100590004B466A4613711079B8474B46180AB8475C
:1005A00043466A4613711079B8474346180AB8475C
:1005B000074B98471020074B984703B03CBC904628
:1005C0009946A246AB46F0BDB5030000D90A00002B
:1005D000C90A00009D030000F0B5DE4657464E46AE
:1005E000C0B582B007000E00150001930AAB1A884F
:1005F00093460BAB1A8892460CAB1A889146F120B1
:1006000040421F4B9847F8B21E4CA0473F12F8B229
:10061000A047F0B2A0473612F0B2A047E8B2A04718
:100620002D12E8B2A047019DE8B2A0472B12D8B224
:10063000A0475B466A4613711079A0475B46180ACB
:10064000A04753466A4613711079A0475346180ACB
:10065000A0474B466A4613711079A0474B46180ACB
:10066000A0470020A0470020A047074B9847102034
:10067000064B984702B01CBC91469A46A346F0BD73
:10068000B5030000D90A0000C90A00009D0300005C
:10069000F0B583B006000D0014000193D220404253
:1006A000154B9847F0B2154FB8473612F0B2B8471D
:1006B000E8B2B8472D12E8B2B847E0B2B847241202
:1006C000E0B2B847019CE0B2B847200AB84702AB95
:1006D000187EB847089B1812C0B2B847089B181478
:1006E000C0B2B847089B180EB847054B98470C2076
:1006F000044B984703B0F0BDB5030000D90A0000D1
:10070000C90A00009D03000070B506000D00C1205D
:1007100040420D4B9847F0B20C4CA047360AF0B25D
:10072000A0470020A0470020A047E8B2A0472D0A1C
:10073000E8B2A0470020A0470020A0470820044BB3
:100740009847044B984770BDB5030000D90A0000D4
:100750009D030000C90A0000F0B5D6464F46464644
:10076000C0B505000E009146984608AB1C88274886
:10077000274B98472401FF2000010440E0273F0554
:100780002743F8B2234CA047380AC0B2A047002044
:10079000A047380EA047ED041F4B9A461D40360176
:1007A0001E4F3E4035438026F6053543E8B2A0474C
:1007B000280AC0B2A047280CC0B2A047280EA04704
:1007C0004B46DD0453461D4043461801384005435F
:1007D0003543E8B2A047280AC0B2A047280CC0B2EF
:1007E000A047280EA0470020A0470020A0470020D7
:1007F000A0472120A0470A4B98471020094B984753
:100800001CBC90469946A246F0BDC0460300001F9E
:10081000B5030000D90A00000000F83FF07F000097
:10082000C90A00009D030000F0B5D6464F46464673
:10083000C0B505000E009146984608AB1C882748B5
:10084000274B98472401FF2000010440E0273F0583
:100850002743F8B2234CA047380AC0B2A047002073
:10086000A047380EA047ED041F4B9A461D403601A5
:100870001E4F3E4035438026F6053543E8B2A0477B
:10088000280AC0B2A047280CC0B2A047280EA04733
:100890004B46DD0453461D4043461801384005438E
:1008A0003543E8B2A047280AC0B2A047280CC0B21E
:1008B000A047280EA0470020A0470020A047002006
:1008C000A0472120A0470A4B98471020094B984782
:1008D0001CBC90469946A246F0BDC0460900001FC8
:1008E000B5030000D90A00000000F83FF07F0000C7
:1008F000C90A00009D030000F8B54B4B984706203D
:100900004A4CA0474A4B98471520A0474820494CDD
:10091000A0470020A0474848484B984705000024BE
:100920007C2D0CD04448454B9847050001203F4B97
:1009300098470134E4B2C82CF2D9002072E0404F4D
:10094000002138003F4DA8470A213F48A847F02121
:1009500049003E483E4CA0478421C9003D48A0477D
:100960002E213D48A04700213C48A0470A213C4891
:10097000A047882149003B48A0473B493B48A04746
:1009800017213B48A04700213A48A0470A213A488E
:10099000A04700213948A84701213948A847032129
:1009A0003848A847E121C9003748A0470021374807
:1009B000A84700213648A847C021C9013548A047AB
:1009C00080218904C0208003334CA0473349344838
:1009D000A04700213348A04702213348A047334CA9
:1009E0002000164EB0477E2149420143C9B2200083
:1009F000A8472F4C2000B047802149420143C9B28B
:100A00002000A84702213800A84746210E48A847E1
:100A10000220064B9847274B98470128FBD0264BCE
:100A200098470120F8BDC046D50A00005D0F0000C0
:100A3000D70A00009D01000000203000C501000021
:100A4000702030004D020000D420300034203000EF
:100A5000890200002C203000302030003820300087
:100A60003C203000482030000D02000040203000C3
:100A7000442030004C2030005020300064203000F2
:100A80006C2030000421300018213000802030001C
:100A90008420300088203000C902000007000026B2
:100AA0000400300008003000542030009020300056
:100AB0009420300015030000810300008022920280
:100AC000C023DB055A61704780229202C023DB05F8
:100AD0009A6170477047704700B583B06B46D91D67
:100AE0000870034B18680122024B984703B000BD01
:100AF000300200207D0F000010B582B06B46DC1D77
:100B0000D871044B186801222100034B98472078C4
:100B100002B010BD30020020B50F000010B5074A2A
:100B2000516980239B000B435361054B984702009A
:100B300004490548054B984710BDC04600080040D1
:100B4000471B000000240040800200201912000012
:100B500030B58223DB054422995C0125A943012499
:100B60002143C9B299543220195C353A914303228A
:100B70001143C9B2195445215A5CAA432243D2B247
:100B80005A541A5C36390A4030210A43D2B21A54F8
:100B900030BD0000064B4121CC2299500231043A6D
:100BA0009950044AD36941390B43D3617047C04619
:100BB000001C00400008004010B5054B984700227B
:100BC00004490548054B9847054B984710BDC0465A
:100BD000950B00000004004274020020291400005C
:100BE000510B0000F0B5CE46474680B5C024E40561
:100BF00080235B026361A3608223DB058022D20530
:100C000091469A62214999625020195C0126B143AC
:100C100001252943C9B219541838195C0F27BC465D
:100C2000B94302273943C9B219548021C90261600E
:100C300017499962174999625221585C04229043DE
:100C40005854585CB0432843C0B258543920195CFA
:100C5000624691433943C9B2195480210903616145
:100C6000A1604A469A620C4A9A6253215A5CB24386
:100C70002A43D2B25A541A5C44390A4020210A430A
:100C8000D2B21A540CBC90469946F0BD010000C087
:100C900000000240040002C0080000C0064B4221D0
:100CA000D02299500131083A9950044AD3693F390A
:100CB0000B43D3617047C046001C00400008004051
:100CC00010B5044B984704490448054B9847054B19
:100CD000984710BD9D0C000000080042340200201F
:100CE000ED0F0000E50B000010B50248024B9847DD
:100CF00010BDC04610E000E0490F000030B582236F
:100D0000DB055922995C0125A94301242143C9B27D
:100D100099543C20195C4A3A114060221143C9B2EF
:100D2000195458215A5CAA432243D2B25A541A5C2D
:100D300049398A4306210A43D2B21A5430BD000011
:100D400010B5084A116980235B000B4313614121F0
:100D5000E823054AD15005490548064B9847064BFC
:100D6000984710BD00080040001C0040001C0042D5
:100D70004C020020390E0000FD0C000010B5164B8F
:100D80009847C022D20580231B02536193608223BF
:100D9000DB0512499962C021090699624F24195D49
:100DA000012081431955802189029161916080223F
:100DB000D2059A620A4A9A6251215A5C82435A5475
:100DC000084B9847084B9847084B9847084B98475B
:100DD000084B984710BDC0467118000000800040C5
:100DE000020000C01D0B0000B90B0000C10C000088
:100DF000E90C0000410D0000EFF31083036072B6B0
:100E0000BFF35F8F7047BFF35F8F036883F3108872
:100E1000704710B5C369002B00D0984710BD10B5BE
:100E2000036A002B00D0984710BD10B5436A002B11
:100E300000D0984710BD000070B504000D000028D8
:100E400015D0002911D0012041220A490A4B9847A8
:100E500029002000094B9847002805D1084B636002
:100E6000084BA360084BE36070BD0020ECE7002056
:100E7000EAE7C04624440000A11400004115000028
:100E8000130E00001F0E00002B0E000070B50400B2
:100E90000D0000280DD0002909D001206E2206493E
:100EA000064B984729002000054B984770BD00204D
:100EB000F4E70020F2E7C04624440000A11400003B
:100EC0005D16000070B506000D001400431E984129
:100ED000C0B281220C490D4B9847012D10D0002D36
:100EE00004D0022D0ED00D20404208E03462621E74
:100EF0009441E2B229003000054B9847002070BDB4
:100F0000F461F4E77462F2E724440000A1140000E5
:100F10001D170000F8B504000D0016001F00431E49
:100F20009841C0B2B8220549054B98473B003200B2
:100F300029002000034CA047F8BDC046244400000F
:100F4000A11400006917000010B5024B1860024B95
:100F5000984710BD980000208D20000010B5044B6C
:100F60001C68044B984701002000034B984710BDB4
:100F700098000020651800009920000070B504005A
:100F80000D00160000280ED000290AD001203422BE
:100F90000649074B984723683200290020009847EC
:100FA00070BD0020F3E70020F1E7C0464044000098
:100FB000A114000070B504000D00160000280ED02A
:100FC00000290AD001203D220649074B9847636853
:100FD000320029002000984770BD0020F3E7002070
:100FE000F1E7C04640440000A114000070B50400C1
:100FF0000D00002817D0002913D0012040220B49F2
:101000000B4B98476560201D29000A4B9847002824
:1010100006DB094BA382094B2361094BE3600020E7
:1010200070BD0020EAE70020E8E7C0465444000015
:10103000A1140000351D00000080FFFFF11000002A
:10104000B510000010B50400431E9841C0B25722ED
:101050000349044B9847201D034B984710BDC046D9
:1010600054440000A1140000311F000030B587B0C7
:1010700004000D00002815D0002911D00120B32252
:1010800009490A4B98472B6803936B680493AB6834
:1010900001930593201D03A9054B984707B030BD68
:1010A0000020ECE70020EAE754440000A11400000F
:1010B000651F000070B584B004000E001500431ECB
:1010C0009841C0B2A3220749074B984720000C382B
:1010D000002302930196039501A9044B984704B09D
:1010E00070BDC04654440000A11400006D10000003
:1010F00070B584B004000E001500431E9841C0B2C4
:1011000087220749074B984720000C380296002396
:101110000193039501A9044B984704B070BDC046E4
:1011200054440000A11400006D10000070B50400CC
:101130000D0000280CD0002908D00120BD2205494F
:10114000054B98470C342C60002070BD0020F5E75B
:101150000020F3E754440000A1140000F8B506682D
:10116000002E02D0330000250CE0104B984718E009
:101170009F68BC466444A41A01348F68BC420BD2F9
:101180001D001B68002B07D05C689442F0D8A41A9D
:101190009F68BC466444F0E7B34203D02800044B88
:1011A0009847F8BD014B9847FBE7C046C1140000C3
:1011B000ED140000F8B50500446903695E1C066182
:1011C000037EDB0702D4037E9B070AD52B7E022217
:1011D0001343DBB22B76F8BD6F69E36820009847B4
:1011E0003C00002CF7D06368F31AA2689342F2D354
:1011F0002F0014373800064B9847237C012BEBD186
:101200006660320021003800024B9847E4E7C04690
:10121000F51400005D11000070B504000D000028F9
:1012200012D000290ED001203B220849084B9847D4
:1012300029002000074B984700232361064B2360B9
:10124000002070BD0020EFE70020EDE770440000B3
:10125000A1140000691A0000B511000010B50400C7
:10126000431E9841C0B253220749084B98472000BB
:10127000074B9847002804D12000064B98470020D0
:1012800010BD11204042FBE770440000A114000093
:101290002D1B0000D11A000070B582B004000D00B3
:1012A000002826D0002922D001207A221F49204B75
:1012B0009847237E01221343DBB22376260014369F
:1012C000290030001B4B9847002814D123696B601C
:1012D000226929003000184B9847237E012293434E
:1012E0002376237E9B0712D4002002B070BD00201D
:1012F000DBE70020D9E7237E0122934323767E3269
:101300000A4900200A4B984712204042EDE701A805
:101310000A4B9847237E0222934323762000084BF2
:10132000984701A8074B98470020DEE7704400006B
:10133000A1140000A91400005D110000F90D0000C7
:10134000451B0000070E0000F8B505000E00170051
:10135000002823D0002923D0002A23D10020F12205
:101360001149124B98472C0008342000104B984725
:101370000028F8D00025715D20000E4B9847200012
:101380000B4B98470028FAD00135BD42F3D320001B
:10139000094B98470028FAD02800F8BD0020DEE766
:1013A0000020DCE70120DAE788440000A1140000F7
:1013B000131D0000031D00001D1D0000F8B5CE46E2
:1013C000474680B5051E884691461FD000291FD08C
:1013D000002A1FD10020862252000F490F4B984748
:1013E00000262C00083420000D4B98470028F8D028
:1013F00043469F1920000B4B9847387001364E45E5
:10140000EFD330000CBC90469946F8BD0020E2E7CF
:101410000020E0E70120DEE788440000A11400007E
:10142000291D00000B1D000070B504000D000028F0
:1014300014D0002910D0012034220949094B9847C3
:10144000200008302900084B9847002803D1074B9B
:101450006360074B236070BD0020EDE70020EBE7E1
:1014600088440000A1140000C51C0000BD1300004A
:101470004913000010B50400431E9841C0B2532226
:101480000449054B984720000830044B984700203A
:1014900010BDC04688440000A1140000F11C0000EB
:1014A000002800D100BE70470368002B03D08B4298
:1014B00003D01B68F9E7002070470120FCE700001B
:1014C00070B504000D00064B984701235840C0B288
:1014D00039220449044B984723682B60256070BD6E
:1014E000A9140000A4440000A114000003680B60CC
:1014F000016070470368002B03D01A68026018006F
:1015000070470020FCE700000300064A1268002A2A
:1015100004D0044A1068C318136070470249014A96
:101520001160F6E79C000020E822002001204042E4
:10153000704780239B014B6000207047002070475C
:10154000F0B501608B69012213438B6103689A69CE
:10155000D207FBD59A69022422439A61364B9942FD
:101560000FD00268936902218B43936102689369EB
:1015700001398B43936103689B69DB07FBD400202F
:10158000F0BD2E4B1A0001C22D4981610468A56986
:10159000C02189002943A161016802248C6001688F
:1015A000284CCC610168284CCC6028490904090CFE
:1015B000274C2143A0240568295100211C340568CB
:1015C00029510C3405682951224C2404240C80250F
:1015D000AD042C43C025066874511204120C8024FB
:1015E000A4022243303506687251703D28220668F5
:1015F00072511A0014321204120C22438426076816
:10160000BA511C331B041B0C234388220468A350CB
:1016100090230268D150104B802212025A51BFF31E
:101620004F8FBFF36F8F8131FF315A501A600368BB
:101630000122DA6595E7C046001C0042A0000020A8
:1016400000000020030A0206330A02009C02002068
:1016500000000280BC02002000E100E0F0B5CE46B0
:10166000474680B585B080460368A4229A58520642
:1016700045D0A4229C58240A653A1440A146234A26
:1016800093422ED00023002B3CD01A6852002CD459
:1016900000224A731A68D200520D0A601A6892003A
:1016A0002AD46A461A486E46B0C8B0C60068306090
:1016B00058680003000F125C0A7388680833190029
:1016C000144B984743461968A8228B583F20834300
:1016D0004C461C438C50002005B00CBC90469946EB
:1016E000F0BD23010C4A9B18CDE701224A731A680A
:1016F000D200D2080A60D1E701220A71D1E70A209C
:101700004042E9E71C204042E6E7C046001C004298
:10171000C4440000493C00009C02002010B5002990
:1017200009D001290ED002290BD10268536D0C4952
:101730000B40536505E001684B6D012083431A435C
:101740004A6510BD01684B6D064C234052021A4396
:101750004A65026801214942E023D150F1E7C046C1
:1017600001020000FFFDFFFF30B584698800E568D5
:10177000AC4660442469C9006118002A1DD1002BC1
:1017800019D05A6802601B6802685B055B0917493B
:101790000A401343036003689B009B0880221206E3
:1017A0001A4302600268124B1A4080231B05134340
:1017B0000360002030BD0360FBE7012AF9D1002B54
:1017C00012D01A680A600A68D200D2088020800508
:1017D000104308605B684B604B689B009B0880224D
:1017E00012061A434A60E4E70B60E2E7FFFF00F8E5
:1017F000FFFFFFC770B51A4B1D682B681C6DE30710
:1018000014D4A30516D4A30118D4E3011BD42302D6
:1018100007D5EB682A68526C920619D50221280078
:101820009847230716D42B681C6570BD2800AB6849
:101830009847E6E728006B689847E4E7032128000B
:10184000EB689847E1E700212800EB689847DEE75E
:101850000121E4E704212800EB689847E3E7C0464C
:10186000A000002003011B1A1A0164205043704796
:1018700010B5094A536806210B435360074B98473C
:10188000074B9847074B9847074B9847FF20074B54
:101890009847074B984710BD004000417919000058
:1018A0009D1900006D190000D919000001190000F0
:1018B000B51800009022D205137802218B431370D3
:1018C0007047000010B582B0EFF31083019372B639
:1018D0009023DB051A78012422431A709860D9609E
:1018E0009023DB051B79DB07FAD4044B1868596891
:1018F000019B83F3108802B010BDC0461000004861
:10190000C30707D5134A144B1A62134B5A68134B7B
:101910001A42FAD1830707D5114A0F4B5A620E4B70
:101920005A680E4B1A42FAD1430707D50D4A0A4BA3
:101930009A62094B5A68094B1A42FAD1030707D534
:10194000094A054BDA62044B5A68044B1A42FAD131
:101950007047C04606010200001C0040FD07000061
:101960000701010006010C00060178000122014B6D
:101970001A71704700080040074A8E2393820023A3
:101980009375D375D3691B0A1B02F82149010B40DB
:10199000D361012313617047001400400D4B0222F4
:1019A0001A7500225A750B4B9B695B07FBD4094BD8
:1019B0009B695B07FBD40722064B9A75054BDB68D6
:1019C000DB06FBD5034A137D802149420B43DBB282
:1019D0001375704700100040194A1A4B1A622C23E5
:1019E000184AD25C1E3B1A42F9D1164B00225A62A9
:1019F00028215A542C23134AD25C1E3B1A42F9D197
:101A00000222104B1A772C230E4AD35C9B07FAD480
:101A100030230C4AD35CDB0703D43023D35C9B0711
:101A2000F6D5084A137F802149420B43DBB2137776
:101A30002C23044AD25C1E3B1A42F9D17047C0469F
:101A4000B7050D000010004010B50400C3689B8965
:101A5000DB0507D50368002B00D09847E368802298
:101A600052009A8110BD000070B504000D00431EA5
:101A70009841C0B230221149114B9847E5600123CB
:101A80002B802A690F4B1A42FBD1E3681A69D207EF
:101A9000FCD40D4A1A8019690A4A1142FBD1E26846
:101AA0002023136213699B06FCD480235B00E26849
:101AB0005381064B1C60002070BDC046D44400001A
:101AC000A1140000038000008080FFFFCC000020F4
:101AD00010B5041E20D0C368002B1BD001205C224F
:101AE0000E490F4B984704220E4B1A60E268002300
:101AF000936113691B07FCD4E3681A691207FCD4CD
:101B00001A8802210A4392B21A801969064A1142C0
:101B1000FBD110BD0020E2E70020E0E7D444000044
:101B2000A114000000E100E003800000C1680A6920
:101B3000034B1A42FBD10B885B0801201840704709
:101B400003800000704700207047000010B5024B72
:101B50001868024B984710BDCC000020491A0000BD
:101B6000024B9C466044800AC0B2704700FCFFBD37
:101B7000C369DB0708D40368022213430360C36907
:101B80009B07FCD10020704704204042FBE7000087
:101B900010B50B4B984702000020002806D0094AD8
:101BA00009490020094B9847002010BD83001B18ED
:101BB0009900074BCB5C9A42F7D00130C0B2ECE7FA
:101BC000611B00003A0200003C450000A114000027
:101BD000EC44000070B50400384B9847E369DB071C
:101BE0001DD483001B189A00354B9B185A681C2380
:101BF0001A40E3699B07FCD123689B0709D523683A
:101C000002218B432360E3699B07FCD1E3699B07B7
:101C1000FCD4012313432360E3699B07FCD1E369F0
:101C2000DB07FCD483001B189A00254B9B185B68CC
:101C30002360E3699B07FCD183001B189A00204BAB
:101C40009B189B686360E3695B07FCD183001B18EA
:101C50009A001B4B9B185B689A040BD4C022D201DC
:101C6000134207D183001B189A00154B9B189B89C0
:101C7000A38115E083001B189A00114989188A89ED
:101C8000A389D204D20C5B0B5B031343A3818B7B30
:101C900007221A40A3895203DB04DB0C1343A38100
:101CA000074A83001D18A9000D005118C97BA173B4
:101CB0005219127C3023E254002070BD911B0000A9
:101CC000EC44000070B505000C00431E9841C0B202
:101CD000B4220449044B98472C602000034B9847DA
:101CE00070BDC0463C450000A1140000D51B00009B
:101CF0000268136802210B431360D3699B07FCD170
:101D00007047036889B2198570470368188DC0B29F
:101D100070470368187E01231840704703681B7ED4
:101D20005B0801201840704703681B7E9B08012058
:101D30001840704770B506000C000800714B9847BA
:101D40000023002B00D184E00025002E00D18DE07F
:101D5000002C00D188E001206B4A6C496C4B9847FD
:101D6000002D00D1CBE0E369DB0721D42A786B7822
:101D70001B021343AA7812041343EA7812061A438B
:101D80001C231A40E3699B07FCD123689B0709D5F4
:101D9000236802218B432360E3699B07FCD1E3693D
:101DA0009B07FCD4012313432360E3699B07FCD109
:101DB000E369DB07FCD434602B786A7812021A439B
:101DC000AB781B041A43EB781B0613431C22134009
:101DD000082B4DD0002C00D18DE0002D00D188E0E3
:101DE00001204C4A49494A4B98472B786A7812029D
:101DF0001A43AB781B041A43EB781B061343464A7D
:101E000013402360E3699B07FCD12B796A791202A6
:101E10001A43AB791B041A43EB791B0613433F4A61
:101E200013408022920213436360E3695B07FCD195
:101E30002B7B23736A7B3023E2542B795B075CD1C5
:101E400001233371AA7BEB7B1B021343F380002039
:101E500070BD012802D00133DBB272E71D01EA1820
:101E60002F4D3C35AD1870E7002075E7002073E773
:101E7000002C3CD0002D38D001202A4A2349244B85
:101E800098472B786A7812021A43AB781B041A43DE
:101E9000EB781B061343204A13402360E3699B073A
:101EA000FCD12B796A7912021A43AB791B041A43CD
:101EB000EB791B0613431C4A13401C4A134363600F
:101EC000E3695B07FCD12B7A6A7A12021A43AB7A78
:101ED0001B041A43EB7A1B06134363626A7B3023AD
:101EE000E254E369002BFCD1A7E70020C5E70020FE
:101EF000C3E7002075E7002073E70223A1E70D2068
:101F00004042A5E7611B0000250900003C45000098
:101F1000A1140000EF080000FCFEFFFFBF1DFDFF45
:101F2000EC44000003090000BFDDFDFF4002020099
:101F300010B5041E0ED00368002B09D00120982292
:101F400012010549054B98472068054B984710BD7D
:101F50000020F4E70020F2E73C450000A114000057
:101F6000711B0000F0B5CE46474680B589B081466A
:101F70000D0004680B6803934B68049300230593DA
:101F800006930679002814D0002C10D00120374A7F
:101F90003749384B9847E3695B0764D1E3699B078E
:101FA000FCD123689B0720D41420404256E0002037
:101FB000EDE70020EBE700222DE0487800024746DD
:101FC0000743B84602310391013205924246A262AC
:101FD0005BB2002B35DB002000283ADB0598AB68AC
:101FE000984202D3069A934233D9237EDBB25A0732
:101FF000E1D5A16A049A002A08D0501C04901170FF
:10200000012E03D9901C0490090A5170069A01927E
:10201000013206920122002ADAD10699059A9142EC
:10202000D6D34946C888D907D2D50399002906D006
:10203000481C039008788046012EBED8C4E780462D
:10204000C2E701235B42638381332376132040423E
:10205000C2E7237E9B07FCD00323237609B00CBC88
:1020600090469946F0BD04204042F7E7850A0000FB
:102070003C450000A1140000024B034A5A600522AF
:102080001A60704710E000E0FFFFFF0010B5014B41
:10209000984710BD79200000080E0BE00B4B0C4850
:1020A00058609860094B1B68DB03FBD5094B9C46C5
:1020B00061441000421ED2B20028EFD1034B596098
:1020C0009960024B1B68DB03FBD5704710E000E012
:1020D000FFFFFF00010000FF024A13680133136095
:1020E0007047C046D000002080221202C023DB05CA
:1020F0005A617047064B5A689B689A4202DD044B4E
:102100009A60704780221202C023DB059A61F8E7CB
:10211000D00000207047000010B586B06B460493D5
:1021200002A91A4B9847029B092B03D00A2B17D000
:1021300006B010BD164A536801335360049B5A78A9
:10214000920901231340134A13700021124A11709F
:10215000002BEDD080221202C023DB059A61E7E755
:102160000B4C237B20001030DB00C01804220499A4
:102170000A4B9847237B0133DBB22373237BDBB20B
:10218000092BD5D90022024B1A73D1E78D0E00001E
:10219000D0000020DD020020DC020020493C0000CD
:1021A00010B50448044CA0470448A0470448A04781
:1021B00010BDC04600FFFFFF110400007F7F7F06B7
:1021C0000700002610B50020034CA047FF20404226
:1021D000A047024B984710BD110400003D030000CA
:1021E000F0B583B004000D0016001F000648074B31
:1021F000984732B229B220B2009780231B01044CC9
:10220000A04703B0F0BDC046FFFFFF04110400006B
:1022100091060000F0B583B004000D0016001F0009
:102220000548064B984732B229B220B200970023E6
:10223000034CA04703B0F0BDFFFFFF0411040000F2
:1022400069040000F0B5D64600B592B007000791CA
:1022500015000C935D485E4B98475E4E3800B047C2
:10226000029003912800B04704000D005A4A92469C
:102270005A4A5B4B04940595D04702000B00594C19
:102280000A920B9302980399A047574DA84707B2AB
:102290000798B047554E0890099102000B000A9824
:1022A0000B99B047A84701B208006B4630215B5E2E
:1022B00019000023009380231B0107910A000D9051
:1022C00001000C9738004A4FB847444A494B0498DC
:1022D0000599D0471090119102000B0002980399C4
:1022E000A047A8470E903D4A434B04980599D04714
:1022F00002000B0008980999A047A84703B21900EB
:102300006B463820185E0A23009380231B01079A2E
:102310000E91B847394A3A4B04980599D0470200C4
:102320000B0008980999A047A84703B21900142385
:10233000009380231B01079A0F910C98B847274AF6
:10234000304B04980599D04702000B00029803997E
:10235000A047A8470C90294A2B4B04980599D047D1
:1023600002000B0008980999A047A84701B26B46E4
:102370003024185F1E2300930023079AB8470A9A57
:102380000B9B02980399B047A84704B228230093F7
:102390000023079A0F992000B847109A119B0298C2
:1023A0000399B047A84700B2322300930023079D4A
:1023B0002A000E99B8473C23009300232A000D9968
:1023C0002000B84712B004BC9246F0BDFFFFFF04E6
:1023D00011040000413B0000AD2F00009A9999992B
:1023E0009999E93FAD340000D93A00008D290000E9
:1023F000910600009999F13F9999B93FCDCCCCCC89
:10240000CCCCEC3F9999A93FCCCCF43FF0B5DE465B
:1024100000B58CB00600069115000B933448354A80
:1024200093469047344F3000B847029003912800FC
:10243000B84705000E00314C0022314B049505963B
:10244000A04702000B0008920993029803992D4DB2
:10245000A8472D4EB04705000698B847069007914B
:102460002A4A2B4B04980599A04702000B00294FDC
:1024700006980799B847B0470A90089A099B0298AE
:102480000399B847B04708900022234B0498059958
:10249000A04702000B0006980799B847B04702B260
:1024A00006926B4620215A5E2821595E28B20123EC
:1024B0000093069B194DA8471948D847194A1A4B4B
:1024C00004980599A04702000B0002980399B847A9
:1024D000B0476B462C229A5E00B2129B0093802379
:1024E0001B010699114CA0470CB004BC9346F0BDEB
:1024F000FFFFFF0411040000413B0000AD2F00006E
:102500000000D83FAD340000D93A0000CDCCCCCC8F
:10251000CCCCF03F8D2900000000E43F29080000EA
:10252000FF0000049A9999999999C93F9106000072
:1025300030B585B004001748174B98471E2C21DD95
:102540002D2C23DD1548164B98473C230393A3B24B
:102550000293052301930133009300235F229B2103
:102560009020104DA84717235F229B2190200E4DED
:10257000A847009419235F229B2190200B4CA04771
:1025800005B030BD0A48064B9847DEE70948044BC2
:102590009847DAE7FFFFFF04110400001616B504A0
:1025A000D104000011050000452200000D240000A8
:1025B000047004040EA7E304F0B583B004000D001A
:1025C00016001F000648074B98473BB232B229B2AB
:1025D00020B26C46248C0094034CA04703B0F0BD9D
:1025E000FFFFFF04110400005907000010B584B07C
:1025F0000400212816DD422818DD0E480E4B9847AE
:102600000E480F4B984764230293A4B20194002311
:1026100000932D3364222321A8204000094CA047B9
:1026200004B010BD0848044B9847E9E70748024B3F
:102630009847E5E70470040411040000C0C0C0041A
:10264000D1040000D90500001616B5040EA7E30456
:10265000F0B5DE4600B582B0434B9847434E3C216F
:10266000706B434B98470800424B9847424B1622E9
:102670000A214D20414CA047414B142281214900A1
:102680008620A0470325009588235B0090225200F6
:10269000002110003B4FB84700955A23F02252000A
:1026A0005A2190204000B8470095B523F0225200EF
:1026B000B52190204000B847334D2B7B013BDB0018
:1026C000EB18D87C4008314B9847314B16220A2131
:1026D0009C204000A0472F4B162262219C204000E6
:1026E000A0472D4B16227E219C204000A0472B4B5B
:1026F000162299219C204000A04721210120284B2F
:102700009B4698472B7B013BDB00EB185B7C01224F
:102710006221D220FF30234FB84700232B73224B76
:102720001622BD219C204000A0471B4B1622D82119
:102730009C204000A047194B1622F3219C2040000A
:10274000A04721210120D8472F230122BD21D220DB
:10275000FF30B847736B01337363144B984702B073
:1027600004BC9346F0BDC046A121000050010020EA
:10277000C51800003125000060450000152200004A
:102780006C450000B9250000D0000020ED250000B8
:1027900074450000844500008C450000944500000D
:1027A00009070000E12100009C450000C521000050
:1027B000F0B583B0214B9847214B9847214B984760
:1027C000214C224A01212000214DA847214A002105
:1027D0002000A8470025009501956B4600220021A6
:1027E00020001D4CA0471D4C012727641C4B63642F
:1027F000210038310F741B481B4EB0471B4B6365DB
:102800001B4BA36521004C310D741648B04764235F
:10281000A366184BE366210060310F741148B0477E
:102820001048154B9847154B1B68642BFBDD144B68
:1028300098470022114B1A60F5E7C0461D010000C1
:1028400069290000F90800004C0200201521000051
:10285000C50E000019210000150F000050010020D6
:10286000D92000008002002099120000B80B00005F
:10287000E9200000F52000005D120000D0000020DB
:102880005126000010B50B00002809D111001800D6
:10289000054B9847002800DB10BD01204042FBE7B4
:1028A00001204042F8E7C0460129000010B50B00A6
:1028B0000138022809D811001800054B9847002854
:1028C00000DB10BD01204042FBE701204042F8E759
:1028D0002529000070B50600064D2B689868002178
:1028E000054CA0472B6858680021A047034B1E6089
:1028F00070BDC046140000206B3C00002402002084
:1029000010B50400054B1868002804D08AB22100D5
:10291000034B984710BD0020FCE7C046240200206E
:10292000B50F000010B50400054B1868002804D04E
:102930008AB22100034B984710BD0020FCE7C04637
:10294000240200207D0F000010B5044C2000044B31
:1029500098472000034B984710BDC04674020020E2
:1029600075140000D528000010B5044C044920005F
:10297000044B98472000044B984710BD34020020B8
:10298000300200202D11000045100000F8B545462A
:10299000DE4657464E460C03E0B54E00C90F88464A
:1029A0000D00610A440F0C43C70019035800DB0FE8
:1029B0009B464B0A510F0B43760D400D1900D20078
:1029C000D84500D1AEE0351A002D00DCF6E0002835
:1029D0000FD1134300D1DBE06B1E002B00D037E199
:1029E000BA1A9742BF41641A7F42E41B01261700BE
:1029F00024E0C64B9E424DD080231B041943382D42
:102A000000DD07E11F2D00DD38E12020431B9A4641
:102A10000B0050468340994613004846EB4018434C
:102A2000030050468240501E8241E9401A43BA1AC0
:102A3000611A9742A441170064420C1B230262D51D
:102A40006402650A002D00D1DFE0280001F0BAF829
:102A50000300083B1F2B00DDD2E020223C00D21AED
:102A60009D40D4409F4025439E4200DDC4E09E1B14
:102A7000731C1F2B00DDF1E0202238002900D21A40
:102A8000D840914097402C000143781E8741DC409C
:102A900000260F437B0709D00F233B40042B05D0B2
:102AA0003B1DBB42BF417F42E4191F0023022CD5CE
:102AB000964B01369E4200D19AE04546944BFF0862
:102AC0001C406007760564020743240B760D002145
:102AD0002403230B0C0D8F4A24051C43144033059B
:102AE00023435B00ED075B082B43380019003CBC17
:102AF00090469946A246AB46F8BD6446044300D1D1
:102B000011E2040067467B07C6D145466007FF080F
:102B10000743E4087D4B9E4230D024037605240B06
:102B2000760DD4E7331A9A46002B78DD002831D091
:102B300076488642AED08020000401435346382BAD
:102B400000DCE9E00A43511E8A410021D219BA4251
:102B5000BF4109197C4217000C192302D3D56B4BD6
:102B600001369E4200D13AE10120694B1C407B08AE
:102B700007401F43E007074364088BE723003B43FC
:102B800000D1CBE18022120314432403240B9EE7DF
:102B90002E007FE70800104300D1B4E0581E002843
:102BA00000D0DEE0BA18BA429B4164185B42E418D8
:102BB000170001262302A6D50226D5E7002D6ED1E7
:102BC000701C4005400D012800DCF9E0B81A84466D
:102BD00087428041E51A40422D1A280200D489E03C
:102BE000D71BBA4292411C1B5242A51AD84629E76C
:102BF0004546002400276AE7454CF61A2C4049E771
:102C00003D002838854000272EE7380000F0DAFF25
:102C100020301DE70A43511E8A41002107E7002B9F
:102C200000D0F3E0701C43055B0D012B00DCADE030
:102C3000364B984200D1D1E0BA18BA42BF4164186D
:102C40007F42E419E707520817436408060021E7AA
:102C50002E48854200D193E01D00D0E629001F3E9A
:102C6000F140202B00D18DE04022D31A9D402F430C
:102C70007D1EAF4100240F43002644E72B000800CF
:102C8000203BD8400300202D00D17DE04020451B93
:102C9000A9400A43511E8A4100211A43C7E6002E6B
:102CA00050D01A4EB04257D080266B429946360417
:102CB00034434B46382B00DDD6E01F2B00DD35E1D9
:102CC0002026F51A2600AE40B2463E00DE40AC4655
:102CD000350056462E436546AF407D1EAF41DC4071
:102CE0003743D71BBA4292410C1B5242A41A06002A
:102CF000D846A3E6644667462C4300D0A2E60025EA
:102D00000026002706E71E00C4E6C046FF070000B5
:102D1000FFFF7FFFFFFF0F801F2B63DC2020C31A04
:102D2000080098409C46834653461000D840030054
:102D30005846184363469A40531E9A4153460243ED
:102D4000D94003E726003E4306D0EB439946002BCB
:102D5000C7D0944EB042ACD10C0017000600D84644
:102D600098E6904B9A450BD08246E7E6002800D0C3
:102D70009EE01800104300D1E9E01C001700D8467F
:102D8000884E87E6002572E7002182E723003B4357
:102D9000002E00D0ABE0002B00D1E7E00B00134386
:102DA00000D177E6BA18BA42BF4164187F42E419ED
:102DB000230200D4F2E07C4B17001C40060069E6B9
:102DC00020003843002ED1D100285BD11C001443D1
:102DD00000D1A8E01C001700D8465BE606000024DE
:102DE000002797E650460B002038C34099465346CB
:102DF000202B00D195E0402350461B1A99400A43EE
:102E0000511E8A414B4600211A439FE6002E30D1C5
:102E100026003E4367D0DB439A46002B1CD0614E10
:102E2000B04260D05346382B00DD96E01F2B00DD0A
:102E30009FE02026F31A26009E409C46B346534648
:102E40003E00DE4033005E461E4363469F407B1ECD
:102E50009F415346DC403743BF1897429241641864
:102E60005242A418060078E627437C1EA74100249E
:102E700037E74C4EB04236D080265B4236049A4645
:102E80003443CFE71800104300D103E6B81A844654
:102E90006745AD41E01A6D42401B050200D42CE6A7
:102EA000D71BBA4292411C1B5242A41AD846F1E5E4
:102EB0001800104300D163E7F80867070743802034
:102EC000E4080003044208D0DD08054205D1D20819
:102ED000590711430F002C00D8467B0FE4001C4318
:102EE000FF00304ED6E50C0017000600D2E5002B9F
:102EF00038D00B00134300D142E7F80867070743B7
:102F00008020E40800030442E7D0CB080342E4D168
:102F1000D208490711430F001C00DEE700270024F8
:102F2000D5E500216BE700250027F3E54E46250097
:102F3000203EF5404B462E00202B2DD04025ED1A8B
:102F4000AC4027437C1EA74100243743C9E68024B8
:102F500000252403134E0027DCE527437C1EA741F0
:102F6000002479E70C0017000E4E93E50C001700C3
:102F700090E556462300203EF34099465346202BC9
:102F80000ED0402356469B1B9C4027437C1EA741E6
:102F90004B4600241F435FE70024D2E71700B2E549
:102FA0000024F2E7FF070000FFFF7FFFF0B5574660
:102FB0004546DE464E46E0B50C0398464E00230BD0
:102FC00087B0070092469B46760DCD0F002E6BD042
:102FD0006D4B9E4235D080245B46420F2404DB00BB
:102FE00014431C43C3009946684BA3469C460023E8
:102FF00000276644029343461C035A00DB0F5046E9
:10300000240B520D984600D176E05F4B9A426DD06A
:103010008023410F1B040B435C49E4008C461C4396
:10302000C300002062444146B6186940721C0191F9
:10303000944607430F2F00D9B0E0554ABF00D2593C
:1030400097465B460343994600D087E000239B46A2
:10305000023308270293CEE742460192022867D046
:10306000032800D10EE2012800D062E100230024F1
:103070000022994601990140CDB2002112030B0DA7
:10308000120B1B051343434A240513401C436400E1
:10309000ED0764082C434846210007B03CBC90462D
:1030A0009946A246AB46F0BD034399464FD05B46D6
:1030B000002B00D189E1584600F084FD03000B3B52
:1030C0001C2B00DD7AE11D22D31A3A0001005C4678
:1030D000DA4008398C4013008F4023439B46B946A1
:1030E00000232D4E0027361A029384E753462343CC
:1030F0002AD10024022096E75346234320D0002CF7
:1031000000D157E1200000F05DFD03000B3B1C2BBC
:1031100000DD49E11D21CB1A51460200D94053463A
:10312000083A944093400C431B4A121A00207AE755
:103130000125019B144C1D400023002299469CE769
:103140000024002201206EE7534603206BE7002392
:103150009B4601330427002602934CE70323814654
:103160000C27029347E7802200230025120399468B
:10317000054C82E75C464B4602986FE75C464B463F
:10318000019502986AE7C046FF07000001FCFFFFB7
:10319000A4450000FFFF0F800DFCFFFF4A46494693
:1031A000170C1A0C1B041B0C08041900000C4143DB
:1031B0001500884619007D43794303958946290007
:1031C000150045434D44029545462D0CAA46029DE7
:1031D0005544A94506D98A46802149028946CA44F0
:1031E00051460391290C0491414609042D04090C10
:1031F00088462900250C24044144240C0591210013
:1032000041438846210079438A46684341465044F9
:103210008146080C48446F43824503D98021490206
:1032200089464F44010C8946390049440291414680
:103230000F0404993F0C88460004C019804441469D
:10324000049159460F0C0904090C884659438A46D3
:1032500039005143894641464A435146090C8B4641
:103260007B43D2185A44934203D980235B029B4686
:10327000D94451460904090C8A46414661437C43BE
:10328000130C12044B445244A1468A463C0041466A
:103290006C434D4351464D440F0C7D19A94503D94C
:1032A0008021490288464444049F0399B84641441A
:1032B0008B468345804141428846514608042F048D
:1032C000000C3F18584602991018894690429241C6
:1032D0004F44BA46524299469346C244D144CB44E5
:1032E0008F42BF41C245894199459B4193459241D7
:1032F0007F4249422D0C52420F435B4213437F19D8
:10330000FF185B463C19DB0D059A64021C4343021F
:1033100013435D1EAB415A46C00D03435202134393
:10332000E20156D501205A0803401343E207134334
:1033300064085A48604400284DDD5A0709D00F221E
:103340001A40042A05D01A1D9A429B415B42E41898
:103350001300E20104D58020514AC00014406044AB
:10336000504A904200DDE3E60125DB0862071A437C
:103370006402019B9146220B4405640D1D407CE6CE
:10338000802259461203114208D0144206D122432A
:103390001203120B45469946434C6EE65B461A43B0
:1033A0001203120B404C68E603005446283B9C4035
:1033B0000023B9E600F006FC2030A6E60300283B17
:1033C0009F400023BB4699468AE600F0FBFB203075
:1033D00074E6B446ADE701252A1A382A06DD019BBA
:1033E00000241D4000230022994646E61F2A21DCC6
:1033F00020252000AD1A1E00AB40A840D6405D1E1F
:10340000AB4130431843D440430709D00F23034056
:10341000042B05D00300181D98429B415B42E41821
:10342000230221D50125019B01241D4000230022F8
:10343000994622E61F2521006D42281AC140080046
:10344000202A1DD05F35AA1A944023435C1EA34155
:10345000072503431D400022002D09D00F22002420
:103460001A401800042AD6D1030065076402220B13
:10347000DB082B4301259946019B00241D40FCE5F8
:103480000024E2E78022012512032243019912035E
:10349000120B0D409946044CEFE5C046FF030000B7
:1034A000FFFFFFFEFE070000FF070000F0B54646E5
:1034B000D6464F460C03C0B5CD0F4E00610A440FEF
:1034C0000C43C1005800400D84468A460F00190382
:1034D000500F490A0143C648760DA846DB0FD200BB
:1034E000844500D1D8E001204340AB4200D1A6E0A2
:1034F0006046351A002D00DC05E1002810D10B00D4
:10350000134300D1D7E06B1E002B00D04BE1534694
:103510009F1ABA458041641A4042241A01261EE0CF
:10352000B34B9E4248D080231B041943382D00DD45
:1035300019E11F2D00DD4CE120230F005B1B100063
:103540009A409F40E840531E9A41E9400743174381
:103550005346DF1B611ABA45A44164420C1B230287
:1035600000D4C5E06402650A002D00D1F6E0280011
:1035700000F028FB0300083B1F2B00DDE9E02022C0
:103580003C00D21A9D40D4409F4025439E4200DD1E
:10359000DBE09E1B731C1F2B00DD0AE1202238009C
:1035A000D21A290097402C009140D8407A1E9741AA
:1035B000DC40002601430F437B0709D00F233B402B
:1035C000042B05D03B1DBB42BF417F42E4191F00C5
:1035D000230225D5864B01369E4200D1AFE0854BB4
:1035E00001251C4043466207FF0864027605174325
:1035F000240B760D1D4000212403230B0C0D7E4A65
:1036000024051C431440330523435B00ED075B088E
:103610002B43380019001CBC90469946A246F0BDC9
:10362000012543466207FF081743E4081D40704B1D
:103630009E4236D024037605240B760DDBE76346E5
:10364000F31A002B00DC94E06046002835D068486F
:103650008642B1D080273F043943382B00DCFDE09F
:103660000A43170000217A1E97415744574580416D
:10367000091944420C1923023AD55D4B01369E428A
:1036800000D14BE101225B4B1C407B0817401F43DC
:10369000E207174364088FE70800104300D024E7CF
:1036A00021E723003B4300D1B9E1802212031443F8
:1036B0002403240B9FE72E007EE70800104300D16F
:1036C000CAE0581E8446002800D0E7E05244524524
:1036D000804164184042241817000126230207D5B0
:1036E0000226CFE764462C4300D1B3E12C006746A5
:1036F0007B0700D062E76307FF081F4301254346AD
:10370000E4081D4093E7002D78D1751C6D056D0D03
:10371000012D00DCF2E05046801A8245BF41651A57
:103720007F42ED1B8446280200D48CE05046171AD5
:10373000BA4292410C1B5542651B984614E701257D
:10374000434600241D40002755E72A4CF61A2C401A
:1037500032E73D0028388540002717E7380000F0A1
:1037600031FA203006E70A43170000217A1E9741FC
:10377000EEE6002B00D0E5E0731C9C465B055B0D7C
:10378000012B00DC9FE01A4B9C4500D1C5E0524460
:1037900052458041641840422418E70752081743F5
:1037A0006408664608E71248854200D185E01D009E
:1037B000BCE629001F3EF140202B00D17FE04022D3
:1037C000D31A9D402F437D1EAF4100240F43002696
:1037D0008EE72B000F00203BDF40202D71D04023CF
:1037E0005D1BA9400A43511E8A4100211743AFE6E1
:1037F000FF070000FFFF7FFFFFFF0F80002E3ED07E
:10380000B34EB44545D0802636046D423443382D3E
:1038100000DDA8E01F2D00DD1FE120262700504617
:10382000761BB740E84007435046B040461EB041C3
:10383000EC403843171ABA4292410C1B5242A41A68
:10384000664698468BE6644667462C4300D08BE676
:10385000002500260027EAE61E00ADE61F2B60DCEF
:103860002027F81A0F00844687401000D8400743ED
:1038700060468240501E8241D9401743F5E626003B
:103880005046064305D0ED43002DD3D0904EB445AD
:10389000BDD10C001700664698468DE68C488342E1
:1038A0000BD06346D9E6002D00D096E00800104307
:1038B00000D1E2E00C0017009846854E7CE600251A
:1038C00080E700218EE7230050460343002E00D0FE
:1038D000A8E0002B00D1DEE00B00134300D16BE623
:1038E0005244524580416418404224181700230274
:1038F00000D4FDE6774B66461C405DE62500504649
:103900000543002ECFD1002D4FD10C00144300D120
:10391000A0E00C00170098464EE6664600240027FB
:1039200085E61F000800203FF8400700202B00D14B
:103930008EE04020C31A99400A43511E8A4100215B
:10394000174392E6002E14D126005046064362D05B
:10395000DB43002B5CD18718974292416418524296
:10396000A418664687E650462043441EA041002422
:1039700060E7574EB4454ED0802636045B42344350
:10398000382B00DD7FE01F2B00DD8BE02026270099
:103990005046F61AB740D84007435046B040461E3E
:1039A000B0410743DC40BF18D6E70D00154300D1F6
:1039B00002E65046801A8245BF41651A7F42ED1BE0
:1039C0008446280200D48DE65046171ABA42924126
:1039D0000C1B5242A41A9846EEE50D00154300D187
:1039E0006BE750466707C00807438020E4080003E0
:1039F000044207D0CD08054204D12C009846D708D0
:103A000049070F437B0FE4001C43FF00304ED3E512
:103A10002F4EB445B4D10C0017006646CCE5002704
:103A20000024E8E5002B39D00B00134300D144E714
:103A3000C008670707438020E40800030442E1D080
:103A4000CB080342DED1D70849070F431C00D9E752
:103A5000002171E700250027E9E52E002700203E20
:103A6000F740202D2FD04026751BAC4050462043F8
:103A7000441EA04100243843DCE6802400252403B2
:103A8000134E0027D3E5504620430700781E874198
:103A90000024BF1860E70C0017008DE50C0017002C
:103AA0000B4E89E51E002700203EF740202B0CD04E
:103AB0004026F31A9C4050462043441EA041074331
:103AC0000024BF1848E70024D0E70024F3E7C046ED
:103AD000FF070000FFFF7FFF30B5134D0A034B00C7
:103AE000120B5B0DC90F0024AB4210DD0F4CA3423B
:103AF0000FDC80240E4D64032243ED1A1F2D0BDDD5
:103B00000C48C31ADA405442002900D114002000A6
:103B100030BD094BCC18FAE7084CE840A446634492
:103B20009A400243EFE7C046FE0300001D04000078
:103B30003304000013040000FFFFFF7FEDFBFFFFD5
:103B400070B5002830D0C317C4185C40C50F2000E2
:103B500000F038F8174B184A1B1AD21A1F2A18DD22
:103B6000164AD21A9440002224035B05240B5B0DF5
:103B70000021100024030A0D240B12052243104CCF
:103B80001B05224013435B00ED075B082B43190024
:103B900070BD210091400A000B21081AC4405B054A
:103BA0002403240B5B0DE3E70025002300240022FF
:103BB000DEE7C0461E0400003304000013040000CA
:103BC000FFFF0F801C2101231B04984201D3000C2E
:103BD00010391B0A984201D3000A08391B09984280
:103BE00001D30009043902A2105C40187047C04696
:103BF00004030202010101010000000000000000B6
:103C000070B500260C4D0D4C641BA410A64209D1C2
:103C1000002600F019FD0A4D0A4C641BA410A642B0
:103C200005D170BDB300EB5898470136EEE7B300FD
:103C3000EB5898470136F2E754460000544600001E
:103C40005446000058460000002310B59A4200D1A7
:103C500010BDCC5CC4540133F8E7030082189342D2
:103C600000D1704719700133F9E74A424A41802375
:103C700010B55200DB0000F001F810BDF0B51D00DA
:103C80004F4B85B01E6804000F000092002E05D037
:103C9000B369002B02D1300000F094F9494B9C42EB
:103CA00050D17468009B022B05D0012B00D984E011
:103CB000002D00DA81E02100300000F015F9616B81
:103CC000002908D023004433994202D0300000F08C
:103CD00041FA002363630023A3616360A3891B0689
:103CE00003D52169300000F035FAA389364A134024
:103CF000A381009B022B5AD003AB02AA2100300003
:103D000000F0F6F9A3891843A081002D24D1029D6B
:103D1000280000F015FA0195071E42D1029B01937D
:103D2000AB4239D1012040420223A2891343A3812F
:103D30000023A360230047332360236101236361D1
:103D400005B0F0BD214B9C4201D1B468AAE7204BDD
:103D50009C42A7D1F468A5E7002FD9D0B369002B06
:103D600002D1300000F02EF9009B012B03D1A38972
:103D7000009A1A43A2810820A38927602761656100
:103D8000184018D0012018400023984211D06D42ED
:103D9000A360A5611800D3E7019800F0D1F9071ED0
:103DA000C0D08023A289019D1343A381D6E70020C0
:103DB000BAE7A560C4E7A060C2E701204042BFE7C0
:103DC00014000020084600005CF3FFFF28460000B6
:103DD000E8450000F7B58A8905000C00130760D498
:103DE0004B68002B04DC0B6C002B01DC0020FEBDBB
:103DF000E76A002FFAD000232E682B6080235B0136
:103E00001A4034D0606DA3895B0706D56368C01A79
:103E1000636B002B01D0236CC01A0200216A0023BF
:103E20002800E76AB847A189431C06D12B681D2BDF
:103E300031D82C4ADA40D3072DD50023636023699B
:103E40002360CB0405D5431C02D12B68002B00D185
:103E50006065616B2E600029C8D02300443399420D
:103E600002D0280000F076F900206063BFE701234C
:103E7000216A2800B847431CC5D12B68002BC2D04B
:103E80001D2B01D0162B01D12E60AFE74023A28954
:103E90001343A381ABE740230B430120A38140429E
:103EA000A5E70F69002FA1D00B680F60DB1B019302
:103EB0000023920700D14B69A360019B002B00DC1B
:103EC00094E7019B3A00216A2800A66AB0470028BF
:103ED00003DC4023A2891343DFE7019B3F181B1A31
:103EE0000193EAE7010040200B6970B505000C0062
:103EF000002B01D1002070BD002804D08369002B65
:103F000001D100F05FF80B4B9C4209D16C680C2288
:103F1000A35E002BEED021002800FFF75BFFEAE74D
:103F2000054B9C4201D1AC68F1E7044B9C42EED1B9
:103F3000EC68ECE70846000028460000E845000071
:103F400010B5024900F0B2F810BDC046E93E0000CD
:103F5000002310B5040003604360836081814366E1
:103F6000C281036143618361190008225C30FFF75D
:103F700074FE054B24626362044BA362044BE3624C
:103F8000044B236310BDC046C9420000F14200004B
:103F9000294300005543000070B568254A1E55436B
:103FA0000E002900743100F01FF9041E08D0002112
:103FB0002A00016046600C30A0606832FFF74DFEB9
:103FC000200070BD836913B50400002B28D18364E1
:103FD000C3640365134B144A1B68826201939842C1
:103FE00001D101238361200000F020F860602000EF
:103FF00000F01CF8A060200000F018F80022E0603B
:1040000004216068FFF7A4FF01220921A068FFF7DF
:104010009FFF02221221E068FFF79AFF0123A361AC
:1040200013BDC046E4450000413F0000F8B51E4BFB
:1040300007001E68B369002B02D13000FFF7C2FFF2
:104040004836B4687368013B04D53368002B07D049
:104050003668F6E70C22A55E002D0DD06834F2E735
:1040600004213800FFF798FF30600028F0D10C23BE
:1040700004003B602000F8BD012320005B42E38187
:104080000233A38165662560A56065602561656171
:10409000A561082229005C30FFF7DFFD6563A56399
:1040A000A564E564E6E7C046E4450000F7B5040012
:1040B0000700002601914834002C01D13000FEBDDC
:1040C0006368A5680093009B013B009301D52468B9
:1040D000F2E7AB89012B08D90E22AB5E013304D085
:1040E00029003800019B984706436835EBE700003C
:1040F00070B50E001D000E23C95E90B0140000299B
:1041000007DA00232B60B3891B0611D48023DB0060
:104110000FE001AA00F04AF90028F2DBF022029B2E
:1041200012021340054A9B185A4253412B60EDE797
:1041300040230020236010B070BDC04600E0FFFFA8
:1041400010B5034B0100186800F04EF810BDC046D2
:104150001400002070B50500002910D00C1F236842
:10416000002B00DAE418280000F046F91D4A136815
:10417000002B05D163601460280000F03EF970BD8B
:10418000A34209D9216860188342F3D118685B689B
:1041900041182160EEE713005A68002A01D0A242BC
:1041A000F9D919685818A0420BD120680918581875
:1041B00019608242E0D110685268411819605A6053
:1041C000DAE7A04202D90C232B60D5E721686018FA
:1041D000824203D1106852684118216062605C60BD
:1041E000CAE7C04628020020032370B5CD1C9D43BA
:1041F000083506000C2D1ED20C25A9421DD8300012
:1042000000F0FAF8254A14682100002919D1244C3D
:104210002368002B03D1300000F044F8206029000F
:10422000300000F03FF8431C2CD10C2330003360E9
:1042300000F0E3F803E0002DDFDA0C233360002008
:1042400070BD0B685B1B1AD40B2B03D90B60CC1809
:10425000256003E08C420ED163681360300000F0EB
:10426000CCF8200007220B30231D9043C31AE7D05F
:104270005A42E250E4E74B6863600C00EEE70C0042
:104280004968C2E70323C41C9C43A042E0D0211A22
:10429000300000F007F8431CDAD1C6E728020020FE
:1042A0002C020020002370B5064C05000800236096
:1042B000FDF72AF9431C03D12368002B00D02B60A3
:1042C00070BDC046E002002070B50C000E25495FAD
:1042D00000F094F8002803DB636D1B18636570BD64
:1042E000A389024A1340A381F9E7C046FFEFFFFF0D
:1042F000F8B51F008B8905000C001600DB0505D5FD
:104300000E23C95E0022022300F062F8A389054A49
:1043100028001340A38132000E23E15E3B0000F031
:104320001FF8F8BDFFEFFFFF70B50C000E25495FC9
:1043300000F04EF8A389421C03D1054A1340A38123
:1043400070BD802252011343A3816065F8E7C04627
:10435000FFEFFFFF10B50E23C95E00F015F810BD8A
:1043600070B50500080011000022064C22601A00FA
:10437000FEF79CFA431C03D12368002B00D02B606E
:1043800070BDC046E0020020002370B5064C050059
:1043900008002360FDF7CAF8431C03D12368002BF3
:1043A00000D02B6070BDC046E0020020002370B535
:1043B000064C0500080011002360FDF7BAF8431C05
:1043C00003D12368002B00D02B6070BDE0020020D9
:1043D00070B50500080011000022064C22601A008A
:1043E000FDF7ACF8431C03D12368002B00D02B60F1
:1043F00070BDC046E00200207047704770B50500F0
:10440000080011000022064C22601A00FEF73AFA5A
:10441000431C03D12368002B00D02B6070BDC04625
:10442000E00200202E2E2F68616C2F7372632F68BC
:10443000616C5F63616E5F6173796E632E63000010
:104440002E2E2F68616C2F7372632F68616C5F6909
:104450006F2E63002E2E2F68616C2F7372632F688E
:10446000616C5F7370695F6D5F73796E632E63005B
:104470002E2E2F68616C2F7372632F68616C5F74CE
:10448000696D65722E6300002E2E2F68616C2F738C
:1044900072632F68616C5F75736172745F73796E9C
:1044A000632E63002E2E2F68616C2F7574696C73F8
:1044B0002F7372632F7574696C735F6C6973742EDC
:1044C000630000000001020304050607080C101435
:1044D000182030402E2E2F68706C2F7274632F6856
:1044E000706C5F7274632E630000000000000000B7
:1044F00004001040000003002EFF00000000000038
:1045000000000000000000000000000000000000AB
:10451000000000000000000000000000000000009B
:1045200000000000000000000C002300000002005A
:10453000000000000100FF01010000002E2E2F6886
:10454000706C2F736572636F6D2F68706C5F73652D
:1045500072636F6D2E6300002530327820000000FA
:1045600053504545444F4D45544552004B4D2F48FF
:1045700000000000424154544552592043484152E2
:1045800047450000424154544552590054454D504E
:104590000000000028646567432900004D4F544F18
:1045A000520000009C3100005C3000005C300000D4
:1045B0005830000074310000743100006631000092
:1045C0005830000074310000663100007431000082
:1045D000583000007C3100007C3100007C3100004C
:1045E00080330000180000200000000000000000E0
:1045F00000000000000000000000000000000000BB
:1046000000000000000000000000000000000000AA
:10461000000000000000000000000000000000009A
:10462000000000000000000000000000000000008A
:10463000000000000000000000000000000000007A
:104640000000000000000000F8B5C046F8BC08BC3F
:104650009E467047E5000000F8B5C046F8BC08BCAF
:084660009E467047BD000000FA
:104668009C020020BC020020A4000020B40000200E
:10467800BC000020180000200000000008460000D0
:1046880028460000E8450000000000000000000087
:104698000000000000000000000000000000000012
:1046A8000000000000000000000000000000000002
:1046B80000000000000000000000000000000000F2
:1046C80000000000000000000000000000000000E2
:0846D8000000000000000000DA
:00000001FF
